:020000040800F2
:100000000004002011030008130300081303000874
:100010001303000813030008130300081303000868
:10002000130300081303000813030008F1840008F9
:100030001303000813030008130300081303000848
:100040001303000813030008130300081303000838
:100050001303000813030008E19000082191000831
:1000600065910008A9910008ED9100088D9900089C
:10007000A1990008B5990008C9990008DD99000800
:10008000F1990008059A00081303000813030008FB
:10009000130300081303000813030008319200083B
:1000A00035940008399400083D94000841940008F4
:1000B000DD9D0008F1A1000805A20008ED9B0008E5
:1000C000F99C000813030008130300081303000839
:1000D00013030008130300081303000813030008A8
:1000E0001993000813030008130300081303000802
:1000F000D59F00081303000813030008130300082A
:100100001303000813030008130300081303000877
:100110001303000813030008AD9F0008C19F0008E7
:10012000199A00082D9A0008419A0008559A00086B
:10013000699A00081303000813030008130300085A
:100140001303000813030008130300081303000837
:100150001303000813030008130300081303000827
:1001600013030008130300081303000851A200083A
:100170001303000813030008130300081303000807
:1001800013030008130300081303000813030008F7
:1001900013030008130300081303000813030008E7
:0C01A000F5B90008D5010008B101000805
:1001B00010B5054C237833B9044B13B10448AFF3A1
:1001C00000800123237010BDC01500200000000036
:1001D00044CE000808B5034B1BB103490348AFF3F5
:1001E000008008BD00000000C415002044CE0008B7
:1001F00072B6394880F30888384880F3098838484F
:100200004EF60851CEF20001086040F20000CCF238
:1002100000004EF63471CEF200010860BFF34F8F3C
:10022000BFF36F8F40F20000C0F2F0004EF688512D
:10023000CEF200010860BFF34F8FBFF36F8F4FF016
:100240000000E1EE100A4EF63C71CEF200010860AB
:10025000062080F31488BFF36F8F07F0F7FD07F0D7
:100260006AFB4FF055301F491B4A91423CBF41F891
:10027000040BFAE71C49194A91423CBF41F8040BB0
:10028000FAE71A491A4A1B4B9A423EBF51F8040B2F
:1002900042F8040BF8E700201749184A91423CBF86
:1002A00041F8040BFAE707F0D5FD07F0D0FD144C38
:1002B000144DAC4203DA54F8041B8847F9E707F001
:1002C00049FB114C114DAC4203DA54F8041B88472A
:1002D000F9E707F0BDBD000000040020000C00207D
:1002E00000000008000000200004002044CE0008A8
:1002F000000C0020BC150020C015002004270020A1
:10030000A0010008A8010008A8010008AC0100082D
:100310006EE700F000F8FEE72DE9F04F2DED108AB2
:10032000C1F80CD0C3689D46BDEC108ABDE8F08FC3
:10033000002383F311882846A047002008F010F816
:1003400007F0A6FF00DFFEE781F0004102E000BFFA
:1003500083F0004330B54FEA41044FEA430594EA85
:10036000050F08BF90EA020F1FBF54EA000C55EAC0
:10037000020C7FEA645C7FEA655C00F0E2804FEA91
:100380005454D4EB5555B8BF6D420CDD2C4480EA73
:10039000020281EA030382EA000083EA010180EAA3
:1003A000020281EA0303362D88BF30BD11F0004FF1
:1003B0004FEA01314FF4801C4CEA113102D0404227
:1003C00061EB410113F0004F4FEA03334CEA133362
:1003D00002D0524263EB430394EA050F00F0A7807A
:1003E000A4F10104D5F1200E0DDB02FA0EFC22FA75
:1003F00005F2801841F1000103FA0EF2801843FA69
:1004000005F359410EE0A5F120050EF1200E012A59
:1004100003FA0EFC28BF4CF0020C43FA05F3C01897
:1004200051EBE37101F0004507D54FF0000EDCF110
:10043000000C7EEB00006EEB0101B1F5801F1BD3B9
:10044000B1F5001F0CD349085FEA30004FEA3C0CBD
:1004500004F101044FEA445212F5800F80F09A80B3
:10046000BCF1004F08BF5FEA500C50F1000041EBB7
:10047000045141EA050130BD5FEA4C0C404141EBBB
:10048000010111F4801FA4F10104E9D191F0000FE2
:1004900004BF01460020B1FA81F308BF2033A3F165
:1004A0000B03B3F120020CDA0C3208DD02F1140C5C
:1004B000C2F10C0201FA0CF021FA02F10CE002F197
:1004C0001402D8BFC2F1200C01FA02F120FA0CFC90
:1004D000DCBF41EA0C019040E41AA2BF01EB0451D9
:1004E000294330BD6FEA04041F3C1CDA0C340EDCD7
:1004F00004F11404C4F1200220FA04F001FA02F31A
:1005000040EA030021FA04F345EA030130BDC4F1D7
:100510000C04C4F1200220FA02F001FA04F340EACC
:100520000300294630BD21FA04F0294630BD94F07D
:10053000000F83F4801306BF81F480110134013D64
:100540004EE77FEA645C18BF7FEA655C29D094EAD5
:10055000050F08BF90EA020F05D054EA000C04BF53
:100560001946104630BD91EA030F1EBF002100203E
:1005700030BD5FEA545C05D14000494128BF41F0DD
:10058000004130BD14F580043CBF01F5801130BD41
:1005900001F0004545F0FE4141F470014FF00000CC
:1005A00030BD7FEA645C1ABF194610467FEA655C7D
:1005B0001CBF0B46024650EA013406BF52EA03351F
:1005C00091EA030F41F4002130BD00BF90F0000F0D
:1005D00004BF0021704730B54FF4806404F1320449
:1005E0004FF000054FF0000150E700BF90F0000F02
:1005F00004BF0021704730B54FF4806404F1320429
:1006000010F0004548BF40424FF000013EE700BFF8
:1006100042004FEAE2014FEA31014FEA02701FBF88
:1006200012F07F4393F07F4F81F06051704732F0BA
:100630007F4208BF704793F07F4F04BF41F4002111
:10064000704730B54FF4607401F0004521F000416F
:100650001CE700BF50EA010208BF704730B54FF0F9
:1006600000050AE050EA010208BF704730B511F0FA
:10067000004502D5404261EB41014FF4806404F132
:1006800032045FEA915C3FF4D8AE4FF003025FEAB8
:10069000DC0C18BF03325FEADC0C18BF033202EB3C
:1006A000DC02C2F1200300FA03FC20FA02F001FA96
:1006B00003FE40EA0E0021FA02F11444BDE600BF39
:1006C00070B54FF0FF0C4CF4E06C1CEA11541DBFE8
:1006D0001CEA135594EA0C0F95EA0C0F00F0DEF8B3
:1006E0002C4481EA030621EA4C5123EA4C5350EA98
:1006F000013518BF52EA033541F4801143F48013E9
:1007000038D0A0FB02CE4FF00005E1FB02E506F079
:100710000042E0FB03E54FF00006E1FB03569CF0CE
:10072000000F18BF4EF0010EA4F1FF04B6F5007FD4
:1007300064F5407404D25FEA4E0E6D4146EB060646
:1007400042EAC62141EA55514FEAC52040EA5E50CF
:100750004FEACE2EB4F1FD0C88BFBCF5E06F1ED879
:10076000BEF1004F08BF5FEA500E50F1000041EBB0
:10077000045170BD06F0004646EA010140EA02005D
:1007800081EA0301B4EB5C04C2BFD4EB0C0541EA7F
:10079000045170BD41F480114FF0000E013C00F394
:1007A000AB8014F1360FDEBF002001F0004170BDB8
:1007B000C4F10004203C35DA0C341BDC04F11404D1
:1007C000C4F1200500FA05F320FA04F001FA05F25D
:1007D00040EA020001F0004221F0004110EBD3702A
:1007E00021FA04F642EB06015EEA430E08BF20EA56
:1007F000D37070BDC4F10C04C4F1200500FA04F3F9
:1008000020FA05F001FA04F240EA020001F000418A
:1008100010EBD37041F100015EEA430E08BF20EAFD
:10082000D37070BDC4F1200500FA05F24EEA020E45
:1008300020FA04F301FA05F243EA020321FA04F074
:1008400001F0004121FA04F220EA020000EBD3702B
:100850005EEA430E08BF20EAD37070BD94F0000F2B
:100860000FD101F00046400041EB010111F4801F5F
:1008700008BF013CF7D041EA060195F0000F18BF10
:10088000704703F00046520043EB030313F4801F4C
:1008900008BF013DF7D043EA0603704794EA0C0F06
:1008A0000CEA135518BF95EA0C0F0CD050EA41061C
:1008B00018BF52EA4306D1D181EA030101F0004199
:1008C0004FF0000070BD50EA410606BF10461946C1
:1008D00052EA430619D094EA0C0F02D150EA0136CD
:1008E00013D195EA0C0F05D152EA03361CBF10460E
:1008F00019460AD181EA030101F0004141F0FE41AD
:1009000041F470014FF0000070BD41F0FE4141F430
:10091000780170BD70B54FF0FF0C4CF4E06C1CEA30
:1009200011541DBF1CEA135594EA0C0F95EA0C0FE5
:1009300000F0A7F8A4EB050481EA030E52EA0335A0
:100940004FEA013100F088804FEA03334FF08055C1
:1009500045EA131343EA12634FEA022245EA1115EE
:1009600045EA10654FEA00260EF000419D4208BF9F
:10097000964244F1FD0404F5407402D25B084FEA4C
:100980003202B61A65EB03055B084FEA32024FF4F8
:1009900080104FF4002CB6EB020E75EB030E22BF55
:1009A000B61A754640EA0C005B084FEA3202B6EB15
:1009B000020E75EB030E22BFB61A754640EA5C00C4
:1009C0005B084FEA3202B6EB020E75EB030E22BF54
:1009D000B61A754640EA9C005B084FEA3202B6EB55
:1009E000020E75EB030E22BFB61A754640EADC0014
:1009F00055EA060E18D04FEA051545EA16754FEA76
:100A000006164FEAC30343EA52734FEAC2025FEA93
:100A10001C1CC0D111F4801F0BD141EA00014FF022
:100A200000004FF0004CB6E711F4801F04BF0143F3
:100A30000020B4F1FD0C88BFBCF5E06F3FF6AFAE0F
:100A4000B5EB030C04BFB6EB020C5FEA500C50F19F
:100A5000000041EB045170BD0EF0004E4EEA113122
:100A600014EB5C04C2BFD4EB0C0541EA045170BD29
:100A700041F480114FF0000E013C90E645EA060E6D
:100A80008DE60CEA135594EA0C0F08BF95EA0C0F9B
:100A90003FF43BAF94EA0C0F0AD150EA01347FF4E3
:100AA00034AF95EA0C0F7FF425AF104619462CE7BA
:100AB00095EA0C0F06D152EA03353FF4FDAE10461D
:100AC000194622E750EA410618BF52EA43067FF46E
:100AD000C5AE50EA41047FF40DAF52EA43057FF4FE
:100AE000EBAE12E74FF0FF3C06E000BF4FF0010C09
:100AF00002E000BF4FF0010C4DF804CD4FEA410C6D
:100B00007FEA6C5C4FEA430C18BF7FEA6C5C1BD039
:100B100001B050EA410C0CBF52EA430C91EA030FBA
:100B200002BF90EA020F0020704710F1000F91EA17
:100B3000030F58BF994208BF90422CBFD8176FEAE5
:100B4000E37040F0010070474FEA410C7FEA6C5CB3
:100B500002D150EA013C07D14FEA430C7FEA6C5CBA
:100B6000D6D152EA033CD3D05DF8040B704700BFE6
:100B70008446104662468C461946634600E000BF34
:100B800001B5FFF7B7FF002848BF10F1000F01BD06
:100B90004DF808EDFFF7F4FF0CBF012000205DF8D1
:100BA00008FB00BF4DF808EDFFF7EAFF34BF012056
:100BB00000205DF808FB00BF4DF808EDFFF7E0FFEF
:100BC00094BF012000205DF808FB00BF4DF808ED40
:100BD000FFF7CEFF94BF012000205DF808FB00BFA7
:100BE0004DF808EDFFF7C4FF34BF012000205DF889
:100BF00008FB00BF4FEA410C7FEA6C5C02D150EA6F
:100C0000013C0AD14FEA430C7FEA6C5C02D152EA04
:100C1000033C02D14FF0000070474FF001007047D5
:100C20004FEA4102B2F1E04324BFB3F5001CDCF10E
:100C3000FE5C0DD901F0004C4FEAC0024CEA507046
:100C4000B2F1004F40EB830008BF20F00100704775
:100C500011F0804F21D113F13872BCBF01F0004078
:100C6000704741F480114FEA5252C2F11802C2F1AA
:100C7000200C10FA0CF320FA02F018BF40F001002B
:100C80004FEAC1234FEAD32303FA0CFC40EA0C00DD
:100C900023FA02F34FEA4303CCE77FEA625307D11A
:100CA00050EA01331EBF4FF0FE4040F44000704751
:100CB00001F0004040F0FE4040F40000704700BFEB
:100CC00053B94AB9002908BF00281CBF4FF0FF31B3
:100CD0004FF0FF3000F074B9ADF1080C6DE904CEAF
:100CE00000F006F8DDF804E0DDE9022304B0704707
:100CF0002DE9F047089E04468846002B40F0858089
:100D00008A42154648D9B2FA82F24AB1C2F12007A6
:100D100001FA02F320FA07F7954047EA03089440E6
:100D20004FEA154E230CB8FBFEF71FFA85FC0EFBAD
:100D3000178843EA084307FB0CF1994209D9EB18DD
:100D400007F1FF3080F0E380994240F2E080023FFB
:100D50002B445B1AA4B2B3FBFEF00EFB103344EA43
:100D6000034400FB0CFCA44509D92C1900F1FF3306
:100D700080F0CB80A44540F2C88002382C4440EA81
:100D80000740A4EB0C0400271EB1D4400023C6E9A1
:100D900000433946BDE8F087002A53D0B2FA82F208
:100DA000002A40F0B680491B4FEA154E1FFA85F81D
:100DB0000127B1FBFEFC230C0EFB1C1143EA01438F
:100DC00008FB0CF1994207D9EB180CF1FF3002D265
:100DD000994200F2EC808446591AA3B2B1FBFEF0AE
:100DE0000EFB101443EA044408FB00F8A04507D9A1
:100DF0002C1900F1FF3302D2A04500F2DC80184626
:100E0000A4EB080440EA0C40BEE78B4208D9002E50
:100E100078D00027C6E9000138463946BDE8F0879A
:100E2000B3FA83F77FB98B4202D3824200F2BD80CE
:100E3000841A61EB030301209846002EA9D0C6E96D
:100E40000048A6E7FFDEC7F12005BB4022FA05FCFB
:100E50004CEA030C01FA07F420FA05F821FA05F32D
:100E60004FEA1C4E48EA0404B3FBFEF9210C0EFBCA
:100E700019331FFA8CF841EA034309FB08FA9A4533
:100E800002FA07F200FA07F10BD91CEB030309F190
:100E9000FF3080F088809A4540F28580A9F10209F0
:100EA0006344A3EB0A03A4B2B3FBFEF00EFB1033C2
:100EB00044EA034400FB08F8A04508D91CEB0404ED
:100EC00000F1FF336BD2A04569D90238644440EA8F
:100ED0000940A4EB0804A0FB02894C45C6464B46DA
:100EE00054D351D0002E69D0B1EB0E0264EB030451
:100EF00004FA05F522FA07F3FC401D43C6E9005445
:100F0000002746E73746304643E7184637E70746A7
:100F10001FE7C2F1200320FA03F7954001FA02F01F
:100F200021FA03F34FEA154E3843010CB3FBFEF7E9
:100F30001FFA85F80EFB173341EA034107FB08F35C
:100F40008B4204FA02F407D9691807F1FF3C28D252
:100F50008B4226D9023F2944CB1A81B2B3FBFEF063
:100F60000EFB103341EA034100FB08F38B4207D923
:100F7000691800F1FF3C10D28B420ED90238294487
:100F8000C91A40EA074714E74145ABD2B8EB020E55
:100F900069EB0C0201381346A4E76046F0E71846F7
:100FA00095E76746D8E781467BE7384645E7ACF1E9
:100FB000020C2B4410E702382C4421E73746E8E6C0
:100FC000704700BF000000000000000000000000AB
:100FD00001F0FF01102A2BDB10F0070F08D010F8EA
:100FE000013B013A8B422DD010F0070F42B3F6D1EE
:100FF000F0B441EA012141EA014122F007047FF007
:1010000000070023F0E80256083C85EA010586EA5D
:10101000010685FA47F5A3FA87F586FA47F6A5FA99
:1010200087F68EB9EED1F0BC01F0FF0102F00702A5
:1010300032B110F8013B013A83EA010313B1F8D150
:101040000020704701387047002D06BF3546033831
:10105000073815F0010F07D1013015F4807F02BF6A
:10106000013015F4C03F0130F0BC0138704700BFBB
:10107000844641EA000313F003036DD1403A41D3A3
:1010800051F8043B40F8043B51F8043B40F8043B62
:1010900051F8043B40F8043B51F8043B40F8043B52
:1010A00051F8043B40F8043B51F8043B40F8043B42
:1010B00051F8043B40F8043B51F8043B40F8043B32
:1010C00051F8043B40F8043B51F8043B40F8043B22
:1010D00051F8043B40F8043B51F8043B40F8043B12
:1010E00051F8043B40F8043B51F8043B40F8043B02
:1010F00051F8043B40F8043B51F8043B40F8043BF2
:10110000403ABDD2303211D351F8043B40F8043B91
:1011100051F8043B40F8043B51F8043B40F8043BD1
:1011200051F8043B40F8043B103AEDD20C3205D3A1
:1011300051F8043B40F8043B043AF9D2043208D099
:10114000D2071CBF11F8013B00F8013B01D30B880B
:1011500003806046704700BF082A13D38B078DD0E9
:1011600010F003038AD0C3F10403D21ADB071CBFBB
:1011700011F8013B00F8013B80D331F8023B20F825
:10118000023B7BE7043AD9D3013A11F8013B00F85E
:10119000013BF9D20B7803704B7843708B788370E6
:1011A0006046704700F0C6BB00F0C5BB704708B58D
:1011B000FFF7FCFF08BD000010B5054C6278022A5D
:1011C00002D1012004F0D4FA0023637010BD00BFE7
:1011D000140C002010B5074C6278012A04D0022AB2
:1011E00006D00023637010BD392003F03DFCF8E702
:1011F000E620FAE7140C002010B50A4C6278022AA7
:101200000AD0032A0BD0012A03D14FF4837000F0D7
:10121000C1F80023637010BD40F21B10F7E740F2E5
:101220001910F4E7140C00200378012B05D1C27AC1
:10123000002A18BF022318467047022B0CBF032355
:101240000823F8E710B5FFF7EFFF0A4B0128044623
:10125000587002D0022808D010BD04F071FA20B1F5
:101260002046BDE8104004F083BA0120BDE81040DC
:1012700004F074BA140C002008B5FFF7D5FF074B33
:101280000128587002D0022805D008BD3920BDE8D9
:10129000084003F063BBE620F9E700BF140C002010
:1012A00008B5FFF7C1FF0A4B0228587009D0032880
:1012B0000AD001280BD14FF48370BDE8084000F03C
:1012C00053B840F21B10F8E740F21910F5E708BDDB
:1012D000140C002010B5044604F014FC012808D1B9
:1012E00002F00EFBFF221146002002F018F8204603
:1012F00010BD01F03BFEC30702D5FF220021F3E73A
:1013000002F02CFAF3E7A0F58073B3F5F85F30B480
:1013100027D210F4805F00F4807300F4007500F4AD
:10132000806400F400620ED0002B0CBF002010205F
:101330000DB140F020000CB140F040000AB140F087
:10134000800030BC0847181C18BF01200DB140F0C8
:1013500002000CB140F00400002AF2D040F0080076
:10136000EFE730BC70470000A0F1E003072B10B599
:10137000044600D940B905492046FFF7C4FFE0B252
:10138000BDE8104003F0EABA0149F6E7434B000814
:101390008F4F000810B50446C0B203F065FBA4F1FE
:1013A000E003072B00D92CB903492046BDE81040C3
:1013B000FFF7A9BF0149F8E7554B0008A14F000806
:1013C000012070470120704708B5FFF7FBFF08BDFB
:1013D000704708B5FFF7FCFF08BD000013B502AB6E
:1013E00003E903000F4B1B78B3B99DF80230009856
:1013F00073B16AB104F034FA04460146009804F06F
:10140000E7F90099204602B0BDE8104000F0D0B8DE
:1014100004F004FA0446F4E7009804F021FA009975
:10142000F1E700BF1B1F002003460A4600689988A9
:10143000FFF7D4BF10B500210446FFF7F5FF2146A2
:10144000FFF7C7FF10BD08B504F089FB08B904F029
:1014500013FC02F09FFC00F0F7FFBDE80840FFF727
:10146000A1BE08B501F004FA03F038F9002002F03B
:101470000BFEBDE80840FFF797BE704708B5FFF7C1
:10148000FCFF08BD0120704708B5FFF7FBFF08BD52
:1014900010B50446FFF7F2FF2046FFF7F5FF10BD39
:1014A0007047000010B503F09EFD01F0A5F904F0AF
:1014B0004BFD002204460321094800F041FFFFF7DD
:1014C000EFFF204604F045FDF92805D901F02AF880
:1014D000BDE8104004F044BD642006F046FFF0E78C
:1014E000180D002038B501210446FFF79DFF054681
:1014F00002F052FD18B1A3780BB102F061FD214654
:10150000284603F075F821462846FFF75DFF08B925
:10151000002038BD2146284600F030FB0028F7D0D7
:101520002146284602F000FC0028F1D0214628463A
:1015300001F000FA0028EBD02146284603F08CF891
:101540000028E5D02146284602F04EFE0028DFD0D4
:101550002146284602F08EFE0028D9D02146284692
:1015600002F0C4FF0028D3D02146284602F09EFA9C
:101570000028CDD0A3789BB145F6D6439D420CD030
:1015800045F6DE439D4205D0B5F5B84F08D1FFF7CB
:1015900089FFBDE704F070FBBAE702F005FDB7E78D
:1015A0002046FFF70DFFB4E70020704770470000AA
:1015B0003C225043C1F30723062202FB030353FAE4
:1015C00081F3034A32F8130082B002B0704700BFC3
:1015D00040BB0008014B33F81000704762BC0008A4
:1015E00013B5ADF804100199FFF7E2FF00F0CAF857
:1015F000B0F5A04F04462DD2B0F5804F80F0898021
:10160000E72815D8E0280AD2A7280BD8A52863D246
:10161000012804D003B24BB1032898BF0024204610
:1016200002B010BDBE285ED9C02864D20024F6E7FF
:10163000B0F5005F08D2B0F5807F03D2F028F5D373
:1016400040F4A044A4B2EAE7B0F5405F59D2C0F339
:101650000B0052E0B0F5AA4F19D2B0F5A84FC3B2B3
:1016600076D2B0F5A44F07D2B0F5A24F56D34AF2C6
:10167000F10040EA0324D2E7B0F5A64F5ED2980805
:10168000012403F003039C4044EA401453E0B0F506
:10169000B24F0ED2B0F5B04F5FD2B0F5AC4FC5D25D
:1016A000C0B200F0F1F8040204F4F85444F4005419
:1016B000B5E7B0F5B44F55D3A0F5C0439BB2B3F531
:1016C000005FB3D2C0F3042000F0DEF8000200F4A3
:1016D000F850E4B20443E9E75B34E4B2274B1C5D05
:1016E00044F480449BE75834E4B2254B33F814406B
:1016F00044F4884493E7C03880B2FFF76BFF044698
:101700008DE7C3B202054CBF43F4484443F4404460
:1017100085E7C0F30B0444F4204480E7C3F381045D
:10172000C0F30110640144EA002403F00303012024
:1017300000FA03F31C4344F40C4483E798080124A3
:1017400003F003039C4044EA401444F40A4479E75C
:101750004AF2F40444EA032461E74AF2F00040EA62
:1017600004246FE700F00F0000F08EF8C4F30314B8
:1017700040EA042444F4104464E700BF30BC00088D
:1017800034BC0008822825D00CD8312863D004D876
:10179000292859D02A2865D0704735284DD03928B6
:1017A00018D07047E32830D004D8E02819D0E228B8
:1017B00026D07047E62832D0E72835D0E42832D149
:1017C000304B5A7891072ED51B7813F0100F08BFB5
:1017D000E72012E02B4B1B7813F0030F18BFE0201B
:1017E0007047284A1378D90743D4527812F0010F72
:1017F00019D013F0100F08BFE32018BF0020704766
:10180000204B1B7813F0040FF2E71E4A1378590798
:1018100031D45278D20730D413F0100FEDE7194BC2
:101820001B781A07D1D47047164A1378190726D4A3
:1018300052789207F0D5E420F5E7124B1B7813F0AD
:10184000200F18BF292070470E4B1B7813F0200F74
:1018500018BF352070470B4B1B7813F0400F18BF93
:101860002A207047074B1B7813F0400F18BF312018
:10187000704739207047E2207047E0207047E6202B
:10188000704700BFC41F0020294B1A78510707D5A5
:1018900000F01801082927D100F0F70040F00400FB
:1018A000110707D500F01801182926D100F0E7002C
:1018B00040F014005B78D90707D500F0180108291B
:1018C00024D100F0F70040F00100990707D500F09F
:1018D0001803182B23D100F0E70040F01100D306C5
:1018E00048BF00F0E700704700F01401042904BF6E
:1018F00000F0FB0040F00800D2E700F014011429CA
:1019000004BF00F0EB0040F01800D3E700F0110135
:10191000012904BF00F0FE0040F00800D5E700F008
:101920001103112B04BF00F0EE0040F01800D6E7C1
:10193000C41F002070477047014B185C704700BF00
:10194000DC1500202DE9F0410F48104DDFF84C80E8
:101950000F4F104E04F0F6FD00242146404604F0DF
:10196000F1FD384604F0EEFD15F8010B04F0E4F843
:101970000146304604F0E6FD0134074804F0E2FD7C
:101980000A2CEAD1BDE8F08162BC0008DC15002019
:10199000D8C6000876BC0008BEC5000871BC0008A7
:1019A000032006F0E2BC000070B51B4D0A2401269E
:1019B00055F8040B00F00F01202206FA01F120F087
:1019C0000F00013C08F06AF814F0FF04F0D1134D49
:1019D0000624012655F8040B00F00F01202206FA18
:1019E00001F120F00F00013C08F058F814F0FF045A
:1019F000F0D10B490B4A0A23013B13F0FF0301F816
:101A0000014B02F8014BF7D10A2000F069F8BDE85C
:101A10007040FFF718BD00BF94BC00087CBC0008F4
:101A2000E6150020DC1500202DE9F84FDFF8AC802A
:101A3000274F0A2500264FF0010958F8044B24F0DF
:101A40000F0A04F00F0409FA04F40122214650465B
:101A500008F024F8A3B2AAF81A30FFF7A1FF002279
:101A60001C49934651F8043B23F00F0003F00F0389
:101A7000006920FA03F3DB075ABF09FA02F35BB2ED
:101A80000023013243EA0B03062A5FFA83FBE9D104
:101A900020222146504608F001F83B78013D5B4585
:101AA0001ABF87F800B00123002315F0FF0546EAAE
:101AB000030607F10107C0D133460A22064904484C
:101AC00000F010F8FFF7CDFC3046BDE8F88F00BFFE
:101AD000E61500207CBC0008DC15002094BC000842
:101AE00070470000F8B506460F4615460D4C2BB161
:101AF0000123237004F028FA0B4B188023782BB1B4
:101B0000094B188804F025FA052808D8F8BDF25CBE
:101B1000FA5401339D42FADC00232370F6E70023D8
:101B2000F8E700BFF0150020F215002000000000CB
:101B3000453807EE900AF8EEE77AB2EE087AC7EE7B
:101B4000877A08B517EE900AFEF762FD9FED080B45
:101B500041EC110B08F094FE002251EC100B064BE7
:101B6000FEF7AEFDFFF75CF800EE100A08BD00BFFF
:101B7000000000000000004000807B4008B545F6F2
:101B80001D43984205D18B7873B300F0F5FD00201A
:101B900008BD45F61E43984204D18B7823B300F06C
:101BA000F9FDF4E745F61F43984206D18B78DBB187
:101BB00000F0DAFD0028F2D1E7E745F62A43984223
:101BC00009D18B7883B100F0F5FD0022042107488C
:101BD00000F0B6FBDBE745F62B43984204D18B7847
:101BE00013B100F0EDFDF0E70120D1E7300D00204A
:101BF00008B5FFF79DFF0F20BDE8084000F044BD89
:101C000008B5FFF795FFBDE8084000F0CDBC00F037
:101C100089BC7047024A136801331360704700BFE4
:101C20003C160020000000002DE9F04FD04B2DEDB8
:101C3000068B1A7883B09B46002A00F01D81CD4E9A
:101C40003368002B40F31881012BDFF880A3DFED10
:101C5000CA9ACA4CCA4F9FEDCB9A00F0A880DAED21
:101C6000007AF4EE697AF1EE10FA40F0408204EB6B
:101C7000830313ED028AC44BC44D1B78002B00F084
:101C80003382D5ED008AF4EE698AF1EE10FA00F0A5
:101C9000DF81F4EEC88AF1EE10FA40F1D981DFED70
:101CA000BC7A87EE887AF2EE08AAC7EE2A7AB6EEF8
:101CB00000AA67EE8A7A17EE900AFEF7A9FC9FED5C
:101CC000AA0B41EC110B08F0DBFD53EC102B18EEC6
:101CD000900ACDE90023FEF79BFC804618EE100A1F
:101CE0008946FEF795FCDDE90023FEF7E9FC024694
:101CF0000B4640464946FEF755FF002800F0A881F4
:101D000095ED008ADFEDA37A87EE887AC7EE2A7A0E
:101D100067EE8A7A17EE900AFEF77AFC9FED920B37
:101D200041EC110B08F0ACFD53EC102B18EE100A2F
:101D3000CDE90023FEF76CFCDDE90023FEF7C0FCD3
:101D4000FEF76EFF286095ED000A3B88924D4FF636
:101D5000FF7293421CBF01333B8000F037FDB4EEAD
:101D6000C90AF1EE10FA00F1C5812B68FCEEC07AC9
:101D700003EB830303EB830317EE902A9B0092B2DD
:101D80009BB29A4200F0B981DFED847A844820EE5C
:101D9000270ABCEEC00A85ED000A06F00EFE7E4959
:101DA0007F4806F0EAFD02217D4806F0F8FDDAEDF5
:101DB000006A3368F5EEC06AF1EE10FA40F3A281D2
:101DC000012B784921DD086890FBF3F203FB120236
:101DD00075480A6090ED007AF7EE007A04EB820510
:101DE00077EE277A95ED006AC0ED007AC6EE267A86
:101DF000B4EEE77AF1EE10FA07DD013292FBF3F56B
:101E000003FB15220A60C0ED009A0B6804EB830403
:101E100094ED000A3B88654C4FF6FF7293421CBF5D
:101E200001333B8000F0D2FCB4EEC90AF1EE10FAA7
:101E300000F122822368FCEEC07A03EB830303EBFC
:101E4000830317EE902A9B0092B29BB29A4200F055
:101E50001682DFED527A564820EE270ABCEEC00A01
:101E600084ED000A06F0A9FD5049514806F085FDB1
:101E700002214F4806F093FD4E4C2378002B00F0D2
:101E8000DC804D4D494E95ED000AB5EEC00AF1EEED
:101E900010FA3BDD3A4A13884FF6FF718B421CBFA4
:101EA0000133138000F092FC3368FCEEC07A03EB40
:101EB000830303EB830317EE902A9B0092B29BB23D
:101EC0009A4223D0DFED357A3948DFF8CC8020EE16
:101ED000270AFCEEC07A17EE907AC6ED007A06F07B
:101EE0006CFD3249324806F048FD0221304806F0C8
:101EF00056FD2B48C8F8007006F05FFD41462848A3
:101F000006F03BFD0221264806F049FD2B482C49EE
:101F1000038891ED007A01339BB207EE903A03807B
:101F2000336803EB830303EB83039B00F2EE006A49
:101F30009BB2F8EEE77A27EE267A002B00F0A48118
:101F4000204B1B78002B40F09F81F7EE006A37EEA4
:101F5000667AB4EEE77AF1EE10FA94BF012300231B
:101F6000002B6AD0184A33E0000000000000004057
:101F7000441600205016002000000000FC15002030
:101F8000F81500200024F441500D002020160020F8
:101F90000000DCC30000DC43640D00200000C842E8
:101FA000E42500204C16002040160020540D00208F
:101FB000D425002045160020241600202C160020D1
:101FC000281600202E160020F615002048160020A6
:101FD000C94E1388368801339BB29E42138006D8BF
:101FE000C64B1E78002E00F0578100231380C44E8C
:101FF000C44B96F800C01F681388BCF1000F40F076
:102000005781013B9BB2138007EBC303D3ED007AEA
:1020100093ED027AF4EE477AF1EE10FA4FF0010CEC
:102020004FF07E5308BF002286F800C00CBF2A6024
:10203000C5ED007A0B6000230380B34B1B78C3F31C
:10204000000313F0FF0F04BF23708BF800302AE168
:10205000D5ED008AF5EE408AF1EE10FA3DD03368F6
:1020600004EB830313ED028AF4EEC88AF1EE10FA52
:1020700033DDDFEDA67A87EE887AF2EE08AAC7EEA6
:102080002A7AB6EE00AA67EE8A7A17EE900AFEF771
:10209000BFFA9FED970B41EC110B08F0F1FB53ECED
:1020A000102B18EE900ACDE90023FEF7B1FA804616
:1020B00018EE100A8946FEF7ABFADDE90023FEF7B9
:1020C000FFFA02460B4640464946FEF789FD20B11D
:1020D00095ED008ADFED8E7A16E6336804EB830314
:1020E00053F8083C2B602EE685ED008A2BE6B0EE17
:1020F000690A2AE69FED870A46E6874806F05DFCF6
:1021000029464DE604EB830313ED018A834B844D8E
:102110001B78002B00F0AD80D5ED008AF5EE408AEB
:10212000F1EE10FA59D0F4EEC88AF1EE10FA54D557
:10213000DFED777A87EE887AB2EE08AAC7EE0A7AE0
:10214000F6EE009A67EEA97A17EE900AFEF760FAAB
:102150009FED670B41EC110B08F092FB53EC102B39
:1021600018EE900ACDE90023FEF752FA804618EEE9
:10217000100A8946FEF74CFADDE90023FEF7A0FAC3
:1021800002460B4640464946FEF70CFD28B395ED46
:10219000008ADFED5E7A87EE887AC7EE0A7A67EE0C
:1021A000A97A17EE900AFEF733FA9FED510B41EC36
:1021B000110B08F065FB53EC102B18EE100ACDE95B
:1021C0000023FEF725FADDE90023FEF779FAFEF792
:1021D00027FD286095ED000A1CE6D5ED008AF5EE96
:1021E000408AF1EE10FA3DD0336804EB830313ED1F
:1021F000018AF4EEC88AF1EE10FA33DDDFED437A9E
:1022000087EE887AB2EE08AAC7EE0A7AF6EE009A4E
:1022100067EEA97A17EE900AFEF7FAF99FED340BF4
:1022200041EC110B08F02CFB53EC102B18EE900A2C
:10223000CDE90023FEF7ECF9804618EE100A894636
:10224000FEF7E6F9DDE90023FEF73AFA02460B460F
:1022500040464946FEF7C4FC20B195ED008ADFED0B
:102260002C7A98E7336804EB830454F8043C2B6021
:10227000B0E785ED008AADE79FED260AE9E529483C
:1022800006F09BFB2146F0E5F4EEC77AF1EE10FA7A
:10229000ACBF0123002363E6224806F08EFB1E48F4
:1022A00006F08BFB267003B0BDEC068BBDE8F08F0B
:1022B0000022327007EBC3031B4EDFED1C6A328035
:1022C0001A682A601A4A127807EE102AB8EE477A7E
:1022D000C7EE267A93ED017AF5EE006A27EE267AAC
:1022E00067EE877AC1ED007AA5E600BFAFF3008004
:1022F00000000000000000403016002038160020CA
:102300002E16002034160020F41500200000DC43B7
:102310000000DCC3F628F441E4250020500D002025
:102320001C160020D4250020F81500200000C8420B
:10233000840D0020014805F0F7BD00BF78BE0008FD
:102340002D4B1B7870B504460E4615460BB900F0B0
:102350007BF82A4B1B78DB074DD5294B1B780BB13B
:1023600000F0E0F8274BDFED286A284801221A70B8
:10237000274B1C60274B1E80274B1D70274B0022CC
:102380001A60274A216800231380264A1160264AD2
:102390002649127807EE102AB8EE477A244AC7EE8B
:1023A000267A94ED017AF5EE006A27EE267A67EE3A
:1023B000877AC2ED007A1F4A138006F0DEFA022106
:1023C000124806F0ECFA1C4806F0F7FA1B491A48C6
:1023D00006F0D3FA0221184806F0E1FA184806F090
:1023E000ECFA1849164806F0C8FA02211448BDE86C
:1023F000704006F0D4BA70BDF5150020F415002029
:1024000044160020451600200000C842F425002094
:102410003416002030160020381600204016002008
:10242000F615002024160020840D0020740D0020D5
:10243000281600202C160020D4250020540D002042
:10244000E4250020640D002038B5274C2278002AAE
:1024500048D103F084FB08B903F00EFC03F0AEFB97
:10246000224D0322287010214FF0904007F016FBF8
:10247000032220214FF0904007F010FB1C491D481B
:1024800006F057FA1C491D4806F053FA1C491D482E
:1024900006F073FA02211B4806F081FA1A491B481C
:1024A00006F06BFA0221194806F079FA6423184AFB
:1024B0001849104806F04BFA6423174A17490F4889
:1024C00006F045FA012323702B78DB0706D500229E
:1024D00003211348BDE83840FFF732BFBDE838405C
:1024E00000F020B838BD00BFF5150020F41500201D
:1024F000BCBC0008A8230020C2BC0008D8230020D0
:10250000540D0020D4250020640D0020E425002077
:10251000C8BC000858BE000890BD000868BE00088E
:102520008C0D0020144B1B7810B50BB9FFF78CFFF6
:10253000124B134800241C6006F03FFA114806F0C5
:102540003CFA114806F039FA104B11481C70114B37
:1025500011491C70114B00221A60114B1A60114B6B
:102560001C600823013B13F0FF0340F8042B41F8E3
:10257000044BF7D110BD00BFF51500205016002008
:10258000D4250020E4250020F42500204516002055
:10259000FC15002044160020581600201C160020B0
:1025A000201600205416002070B52B4C23782DEDFA
:1025B000028BB0EE408A002B3AD0284B1B780BB927
:1025C000FFF742FF264907230A46D1ED077AF4EECA
:1025D000487AF1EE10FA39D19800111800250D60F3
:1025E0002049002641F82360014404300244072BAF
:1025F00021D11D4B1A68013A48BF00221A601D689C
:102600001A4B1A68AA42A4BF00221A6085B918485A
:1026100006F0D3F9174806F0D0F9174806F0CDF9BF
:10262000164A257000231360154A1360154B1D6070
:10263000BDEC028B70BD106842F8040C486808605D
:10264000013342F8045B41F8046FD0E7013B581CAA
:10265000A1F10401B9D1CCE744160020F515002002
:10266000FC15002058160020501600204C160020A3
:10267000D4250020E4250020F42500201C1600208D
:10268000201600205416002038B5294B1B782DED5C
:10269000028B0546B0EE408A0BB9FFF7D5FE254BFD
:1026A0001B78DB0740D5244C2368072B3CDC234BED
:1026B0001B780BB1FFF736FF214B01221A70B5EEE4
:1026C000C08A204B0022F1EE10FA1A800ADD23683E
:1026D0001D4A02EB830282ED008A1C4A42F8235015
:1026E000013323601A491B4806F047F902211948B3
:1026F00006F055F9184806F060F91849164806F032
:102700003CF90221144806F04AF9154806F055F93B
:102710001449134806F031F9BDEC028B0221104830
:10272000BDE8384006F03BB9BDEC028B38BD00BFB8
:10273000F5150020F4150020501600204516002045
:1027400044160020F8150020FC1500205816002023
:10275000740D0020F4250020D4250020540D002005
:10276000E4250020640D0020024B187800F00100E1
:10277000704700BFF415002008B5054B187840F0ED
:102780000100187003F01DFABDE80840FFF741BAD8
:10279000F415002008B5FFF7C5FE054B18786FF358
:1027A00000001870C0B2BDE8084003F00ABA00BFCC
:1027B000F4150020014B00221A7070477816002093
:1027C000014B00221A70704778160020064B1B78C8
:1027D00043B9064A1370064B4FF07C521A60054B02
:1027E00000221A60704700BF78160020500D0020AC
:1027F000880D002048160020024B1B780BB1FFF714
:1028000006BA70477A16002008B5FFF7F5FF044BAB
:10281000044800221A700821BDE80840FFF790BD67
:102820007A160020C80E0020034B0448002208211D
:102830001A70FFF785BD00BF79160020A40D002097
:1028400010B5FFF7D9FF084A08481378013303F0A1
:1028500003031370282404FB030000220521BDE8B4
:102860001040FFF76DBD00BF240E0020280E002091
:10287000F8B5174B1B788BB1164C208840B903F084
:1028800063FB2080144C154D227842B1531E08E0A2
:1028900003F05FFB124B1B888342F0D3F8BD2B780B
:1028A000013B104E317849B10F49C85C8F5CFFF78E
:1028B000A7F9337813B13846FFF79AF923782978C6
:1028C0000133B3FBF1F201FB12332370E6E700BFE3
:1028D0008C160020901600208D1600208B160020EC
:1028E0004C0F00207A1600207B1600207047000055
:1028F00008B5054B054801221A7008210022FFF790
:102900001FFDFFF7F3FF08BD7A1600200C0F002013
:102910007047000008B5054B054801221A700821D0
:102920000022FFF70DFDFFF7F3FF08BD7916002029
:10293000E40D00202DE9F04145F6264398428AB087
:10294000044606D18B78002B3ED0FFF7D1FF002044
:1029500053E045F62743984205D18B78002B33D0BE
:10296000FFF752FFF3E745F62843984206D1634B41
:102970008A781B7842B3002BF2D1E6E745F62C4368
:10298000984204D18B78FBB1FFF7C4FFDFE745F62F
:102990002D43984204D18B78B3B1FFF745FFD6E7BA
:1029A00045F62E43984206D18B786BB1544B1B7879
:1029B000002BF2D1E8E745F62943984204D18B7801
:1029C00013B1FFF73DFFC2E74C4B1A7822B94C4BCD
:1029D0001B78002B00F090808E78002E3DD0E02CEC
:1029E0000ED1FFF709FF474B01221A70464B00201A
:1029F0001870464B1870464B18700AB0BDE8F0814D
:102A0000E22C0BD1FFF7F8FE3E4B1A7812B13E4A8A
:102A100001211170002018703C4BEDE7E32C0FD121
:102A2000394B1B78CBB1FFF7E7FE364B002018700F
:102A3000364B01221A70374B1870374B1880DCE781
:102A4000522C04D1354A13880A3B13807FE7512C5E
:102A500003D1324A13880A33F7E74B7830480978B4
:102A6000062505FB030313F801C02E4B1D782E4BE2
:102A70001B6824351D442D4B1B78EDB29BB9654472
:102A8000EDB29EB312B12846FFF7B2F81D4B1B788A
:102A90002BB11F4A26491378CD5401331370B4FA71
:102AA00084F04009A9E7234B01AF03F1200818681F
:102AB0005968BE46AEE80300083343457746F6D171
:102AC0001988AEF800109B788EF802300C21BCFB00
:102AD000F1F303EB430001FB13C30AA951FA83F39B
:102AE00005EB800513F8243C1D44C9E7002AD6D025
:102AF0002846FFF785F8D2E701207EE77A16002006
:102B0000791600208F1600208E1600208C160020CB
:102B10008B1600208D160020901600204C0F0020F0
:102B200003BB00084E0F0020080F0020240E0020D9
:102B30007B160020E0BA000808B500F06DF940F6F9
:102B4000FF7008BD08B5074800F01EF9064800F000
:102B50001BF9064800F018F90548BDE8084000F0E8
:102B600013B900BF00E0030800E8030800F0030801
:102B700000F80308B0F5805F2DE9F041884602D3E4
:102B80000020BDE8F081460006F1006505F57835C6
:102B90004FF6FF722B889A424FEAA02404D12846B0
:102BA00000F014F980B2ECE7E402124F04F1006483
:102BB00004F578344FF4006221463846FEF758FA9F
:102BC0002B789845DCD040F2FE733340204607F85E
:102BD000038000F0D9F80025795D61F0FF014B1CFE
:102BE00003D089B2601900F0F1F80235B5F5006F35
:102BF000F2D1D7E79216002080B2400000F10060C9
:102C000000F578300078704780B2FFF7B3BF83B229
:102C10005B0003F1006303F578331A78431C9BB221
:102C20005B0003F1006303F57833187842EA002073
:102C3000704738B584B20D462046C9B2FFF79AFFF7
:102C4000601C290A80B2BDE83840FFF793BFFFF748
:102C5000F0BF83B25A1C10B592B25800520000F176
:102C6000006002F1006200F5783002F578320178F8
:102C700014789A1C92B25200033302F100629BB2A4
:102C800002F578325B0003F10063127803F57833C4
:102C90001878130443EA04230B4343EA006010BD91
:102CA00080B2F8B5471CBFB243007A0003F100635D
:102CB00002F1006203F5783302F57832861CB6B271
:102CC0000C46197892F800C0720002F1006202F519
:102CD0007832C51CADB213786A0002F1006202F5C9
:102CE00078321B04127843EA0C230B4343EA026355
:102CF000A34212D0E1B2FFF73DFFC4F307213846EB
:102D0000FFF738FFC4F307413046FFF733FF210ECA
:102D10002846BDE8F840FFF72DBFF8BD0B4BDA6839
:102D2000D2070CD4DA6851070BD4DA68D2060AD479
:102D3000DB6813F0010F0CBF052004207047012051
:102D40007047022070470320704700BF00200240F8
:102D500073B50446FFF7E2FF0025FF2601280FD1D7
:102D600014B9062002B070BD01950196019B1BB9F4
:102D7000FFF7D4FF013CF1E7019B013B0193F5E72D
:102D8000002C08BF0620EDE738B5054640F6FF7079
:102D9000FFF7DEFF052815D10B4C236943F0020332
:102DA00023616561236943F04003236140F6FF70AE
:102DB000FFF7CEFF06281EBF236923F0020323611D
:102DC0003423E36038BD00BF00200240104B00F107
:102DD00078429A4270B505460E4616D81F20FFF776
:102DE000B7FF052810D10B4C236943F00103236181
:102DF0001F202E80FFF7ACFF06281EBF236923F09B
:102E0000010323613423E36070BD0720FCE700BFAA
:102E1000FEFF070000200240034B044A5A6002F103
:102E200088325A60704700BF002002402301674586
:102E300030B585B0C0F307230190314AC0F3074095
:102E4000125CA3B98DF80C208DF80D208DF80E20A2
:102E50009DF80C30002063F307009DF80D3063F3FC
:102E60000F209DF80E3063F3174005B030BD9DF87C
:102E7000041001EB4104FF206400B4FBF0F46FF098
:102E80005400604300EB410000EB4000C0B213FB74
:102E900000F5C0F1FF00C3F1FF0143432D121B12E7
:102EA000C5F1FF05C3F1FF03514355435343C1F33C
:102EB0000721C5F30725C3F30723062C1DD8DFE838
:102EC00004F006040D12171C060013462A468DF85E
:102ED0000C308DF80D208DF80E10B9E7184613460A
:102EE0000A460146F3E713460A4619462B46EEE723
:102EF00018460B4611460246E9E70B462946E6E727
:102F0000C9BF0008704770B504460D46164601F06B
:102F100043F828B131462846BDE8704001F07CB83E
:102F2000207870BD13B58DF802208DF800008DF863
:102F3000011000981C46FFF77BFFC0F30743C0F366
:102F4000072262702070A37002B010BD064A137889
:102F500013F0FE0F04D1012161F347031370704792
:102F6000552BFCD92A21F7E7E41E00200820FFF7A3
:102F700070BE08B5FFF7EAFFBDE80840014608202B
:102F8000FFF78EBE034B0448186000221A71FFF74A
:102F9000F0BF00BFE41E00200300FFFF034B1B78BF
:102FA00013F0010018BF5808704700BFE41E00204E
:102FB000044B1A791868022A9CBF01321A71FFF774
:102FC000D8BF00BFE41E0020034B1A790AB1013AB2
:102FD0001A711868FFF7CDBFE41E002000F038BF5B
:102FE000104B11481B7870B5104D13F00103697830
:102FF00006D02B7803EB43031844FFF7EFFF70BDB7
:10300000AA78EE7802EB42040444964204F10304E9
:10301000EFD9013204F8023C04F8033C04F8013C07
:10302000D2B2F2E7E41E0020991E0020510F0020CA
:103030000E4B1B78DB0770B416D50D4CA378E578E2
:103040000C4C03EB43063444AB4204F1030402D3BB
:1030500070BCFFF7C5BF013304F8020C04F8031C71
:1030600004F8012CDBB2EFE770BC7047E41E0020CF
:10307000510F0020991E0020094B1B78DB0707B574
:103080000AD501ABFFF74EFF9DF806209DF804100E
:103090009DF80500FFF7CCFF03B05DF804FB00BF0F
:1030A000E41E0020064B0279064910B504468A5CEE
:1030B00058789978FFF7E0FF23790133237110BD29
:1030C000E41E0020C9BE0008054B10B50446DA789E
:1030D00099780079FFF7D0FF23790133237110BD70
:1030E000E41E002037B5164C0546207838B9FF227B
:1030F00001AB1146FFF716FF9DF8053023702979C3
:10310000012915D089B1022916D000221046114696
:10311000FFF78EFF2B7903220133B3FBF2F202EBB0
:1031200042029B1A2B7103B030BD20780A46EFE7AC
:10313000002221781046EBE7002022780146E7E7DD
:10314000E21E00202DE9F04F334C94F800C085B00A
:103150001CF0010F054688461646019320D04FEA21
:103160005C032E4FDFF8C0E0FF5C8EF800700CF0BF
:10317000FE0CBCF1020F16D103ABFFF7D3FE9DF896
:103180000E209DF80C109DF80D00FFF751FF019BDC
:10319000657084F80280E67013B12068FFF7E9FEDD
:1031A00005B0BDE8F08F022F01D1E678EFE7062FDA
:1031B00001D16578EBE7092FFBD0192FE7D1193B37
:1031C000DBB203F0010200925B08154ADFF85C9065
:1031D00012F803A00027CB4699F80420FBB29A42CC
:1031E00002D8FFF7FDFED2E703FB0AF0B0FBF2F0D6
:1031F000009AC0B272B928449BF802201344094ACD
:1032000003EB43031344C0B232464146FFF78AFE44
:103210000137E1E7281AEFE7E41E00209EBE000810
:1032200088BE0008991E0020EC1E0020510F0020CF
:10323000054910B44C78CA78897808340346E0B25E
:103240005DF8044BFFF77EBFE41E00200120FFF76E
:10325000EFBF0000054910B44C78CA788978083C63
:103260000346E0B25DF8044BFFF76CBFE41E00209C
:103270000120FFF7EFBF000010B4074CA178E278FF
:103280001131FF2928BFFF210346C9B260785DF8DC
:10329000044BFFF757BF00BFE41E00200120FFF7DB
:1032A000EBBF000010B4064CA178E278113921EA96
:1032B000E1710346C9B260785DF8044BFFF742BF85
:1032C000E41E00200120FFF7EDBF000010B4074C02
:1032D000E278A1781132FF2A28BFFF220346D2B23A
:1032E00060785DF8044BFFF72DBF00BFE41E00209F
:1032F0000120FFF7EBBF000010B4064CE278A17884
:10330000113A22EAE2720346D2B260785DF8044BC9
:10331000FFF718BFE41E00200120FFF7EDBF0023D8
:10332000FFF710BF2DE9F041144EDFF85880144F1D
:10333000044600253179E8B281420DD8FFF750FEEE
:10334000A37813F0010F237914BF013303F1FF3386
:103350005BB22371BDE8F081B378FF22B2FBF1F2DA
:103360002179034403EB430302FB00104344FA7842
:10337000B978C0B2FFF7D6FD0135DBE7510F002069
:10338000E41E0020991E00202DE9F74F8378314E6E
:10339000314D13F0010F0CBF01234FF0FF330093A9
:1033A0004FF0000933795FFA89F843450CD8FFF7ED
:1033B00017FE009B012B2B7845D103B93379013BD4
:1033C0002B7003B0BDE8F08FB378244ADFF890B0DB
:1033D000434403EB430302EB030A00248AF8014051
:1033E000D4549DF800308AF80240019327462A7889
:1033F0002244D2B253B2092B1FDD092293FBF2F211
:1034000002EBC2029B1A5BB298450DD19BF80330C8
:103410009BF802109BF80100C7F104025A43C2F363
:1034200087025346FFF77EFD019B01371C44042FA2
:10343000E4B2DCD109F10109B4E7002BE4DA054B71
:103440001B791344DFE731790133B3FBF1F201FB60
:103450001233B5E7510F0020E31E0020991E002013
:10346000E41E00202DE9F8432B4C2C4DA378E07886
:1034700003EB43022A440021984202F1030220D8C0
:10348000274EDFF8A090DFF8A48000272179FAB258
:1034900091421FD8FFF7A4FD224D23482A780178D6
:1034A00033780A4452B20B445BB2002A33702A705C
:1034B00003DD2279013A934201DB49420170BDE804
:1034C000F883013302F8021C02F8031C02F8011C05
:1034D000DBB2D1E7B2FBF1F301FB1323A1780B447C
:1034E00096F90010DBB28A4203EB43030EDB99F935
:1034F00000108A420ADC2B4498F8032098F8021046
:1035000098F80100FFF70EFD0137BFE7E918002228
:103510004A70EA548A70F7E7510F0020991E002084
:10352000E11E00204F0F0020500F0020E41E00205D
:10353000838801332DE9F04103F00103114EDFF8D8
:103540004C80114F8380054600243379E2B29342C8
:1035500003D8BDE8F041FFF743BDA888B378B97838
:1035600000EB520000F0010013448200104403EB12
:10357000430300EB00104344FA78C0B2FFF7D2FCDB
:103580000134E2E7510F0020E41E0020991E0020C4
:103590002DE9F041154FDFF85C80154D06460024FB
:1035A0003A79A24208DCFFF71BFD3379013303F0BF
:1035B00001033371BDE8F081BB7896F804C06878E8
:1035C000A978234403EB4303B4EB520F434407DAD7
:1035D000BCF1000F07D0EA78FFF7A4FC0134DFE765
:1035E000BCF1000FF7D00022F6E700BF510F00201A
:1035F000E41E0020991E00202DE9F84F012390F8C9
:103600000280DFF818A1444E90F80490037100275F
:103610009AF80430FCB2A34203D8BDE8F84FFFF794
:10362000DFBCA500B9F1000F15D12B19334483F885
:10363000039083F80290394B394A9B7823442C44F9
:10364000311903EB43031344305D8A784978FFF75F
:1036500069FC0137DCE72A193244D3784BB3013BCC
:1036600092F804E0DBB2D370BEF1000F1FD0C3F1BB
:103670004B015FFA81FC2B482A193244C17811FBB7
:103680000CF14FF04B0CB1FBFCF191702BB9BEF17A
:10369000000F02D0137182F803C0B8F1020FCAD82C
:1036A0002B19F2184178F15483785370C3E79C4684
:1036B000E1E708F081F91C4B9842BCDCB8F1020F3D
:1036C000DFF860B021D908F077F9FF2390FBF3F31E
:1036D000184400F0FF002B19B8F1020FF05417D96D
:1036E00008F06AF99BF802305B0890FBF3F202FBEA
:1036F00013000344DBB22A19324453700023937041
:103700004B23D3700123137195E79BF80100E2E787
:103710009BF80230EFE700BFB41E0020510F0020DD
:10372000991E0020E41E00200704020108B5094B81
:103730001A786FF300021A701868FFF71AFC064B2C
:10374000002241F288305A7004F00FFEBDE80840B4
:10375000FFF746BCE41E0020EC1E002008B5084B15
:103760001A786FF300021A70064B002241F288307B
:103770005A7004F0FAFDBDE80840FFF731BC00BF05
:10378000E41E0020EC1E002008B5084B08481978FC
:103790000B224908FDF71CFC10B9064B01225A7098
:1037A00002F0D2FB044B188008BD00BFE41E0020CD
:1037B000560F0020EC1E0020921E002010B5164C63
:1037C0002378DA0726D5D8B9012262F3470323709C
:1037D00011B12068FFF7CDFB217810480B22490872
:1037E000FDF7F6FB98B10E4B00225A700D4BA178F5
:1037F00060780122DA70E278BDE81040FFF78FBDF3
:103800002A2801D92A22E0E760F34703DFE7FFF720
:10381000BBFFEBE710BD00BFE41E0020560F0020E9
:10382000EC1E0020921E0020054B1B785B08013324
:103830002B2B014634BF18460120FFF7BFBF00BF46
:10384000E41E00200120FFF7EFBF0000064B1B78AD
:10385000C3F34603013B13F0FF03014614BF1846B0
:103860002A20FFF7ABBF00BFE41E00200120FFF7B6
:10387000EDBF0121FFF7A2BF034B187840F0010014
:1038800018704008FFF7F5BFE41E0020034B1B78BB
:10389000DB0701D5FFF74ABFFFF7EEBFE41E0020AC
:1038A0000021FFF78BBF000038B5124D2A78FAB916
:1038B00002F055F918B902F0DFF9FFF763FBFFF7E3
:1038C00055FB0D4C10F0FE0F206004D1FFF75AFBA2
:1038D000FFF74CFB2060FFF739FB084B20780022F4
:1038E0005A70C30702D54008FFF7DAFF01232B7097
:1038F00038BD00BF981E0020E41E0020EC1E0020F2
:10390000034B187840F0010018704008FFF7C8BF5B
:10391000E41E0020014B00225A707047EC1E00206C
:10392000434B5A782DE9F041002A7ED0414A1B785A
:103930001078414EC3EB5000C0B2022BB0701ED1C4
:103940003E4B3F4D642201211844FFF7DCFA84B25C
:10395000F3783BB10027F77002F0F6FAE34318441E
:103960003080B780308802F0F4FAA0425DD333880B
:1039700031481C4434802B46BDE8F0411847062BE3
:1039800008D1304B304D642205211844FFF7BBFAB3
:1039900084B2DDE7092B09D12C4B2D4D6422012186
:1039A00003EB5000FFF7AFFA84B2D1E70F2B09D138
:1039B000284B294DC822012103EB5000FFF7A3FA41
:1039C00084B2C5E7152B08D1244B254D642205216F
:1039D0001844FFF798FA84B2BAE7182B19D0232BB2
:1039E00003D1204B204D1C88B2E7242B15D0252B6A
:1039F00017D10323B0FBF3F303EB4303C01A1B4BB4
:103A00001B4D3222052153FA80F0FFF77CFA84B275
:103A10009EE74FF47A74174D9AE74FF4FA74164DF7
:103A200096E74FF4FA64154D92E7BDE8F08100BFC8
:103A3000EC1E0020E41E0020921E002084BE000820
:103A4000A530000890BE0008C930000893BE0008E9
:103A50002533000898BE0008893300088DBE000891
:103A60006534000896BE0008E53000089BBE0008DB
:103A7000F93500083135000891350008052F000898
:103A800000B11047084738B504460D46FFF786FADF
:103A9000A04206D3FFF782FAA84202D2FFF7D2FE75
:103AA00038BD2046BDE83840FFF7E3BE38B58C7816
:103AB0000546002C55D001F055FFA5F5B943423B12
:103AC00000F02200132B0ED8DFE803F00A0F1417C2
:103AD0001A1D202326292C2F33383B3E41444649CA
:103AE000FFF7D4FE0024204638BD1F4A1F49FFF7C8
:103AF000C7FFF7E71D4A1C49F9E71D4A1D49F6E7CC
:103B00001C4A1B49F3E71C4A1C49F0E71B4A1A49A7
:103B1000EDE71B4A1B49EAE71A4A1949E7E71A4A3F
:103B20001A49E4E7194A1849E1E70120FFF7A1FE25
:103B3000D8E705210220FFF7A6FFD3E708210620DA
:103B4000F9E70E210920F6E714210F20F3E71721EA
:103B50001520F0E71820E9E722211920EBE72320C0
:103B6000E4E70124BFE700BF6D38000845380008CE
:103B7000713200084D320008C53200089D3200083D
:103B800019330008F1320008C92F0008B12F0008CE
:103B9000014B1878C0087047EE1E002008B501F0F0
:103BA000DEFF08B902F068F802F001F8084B0F28B0
:103BB00088BF0122187084BF62F3C70018701B7899
:103BC00013F0010018BFD80800F0D2F808BD00BFFC
:103BD000EE1E002010B5094C237813F0F80F04BF37
:103BE00008332370207840F00100207001F0E2FFDC
:103BF0002078C00800F0BCF810BD00BFEE1E002009
:103C000010B50B4C207810F0F80F0CD00838C0B26B
:103C100010F0F80F14BF0123002363F3000020709D
:103C2000C0B201F0C7FF2078C00800F0A1F810BDB5
:103C3000EE1E002010B50B4C2378DA0710D443F0A9
:103C40000103012B04BF1A4663F3C702237008BFA8
:103C50002270207801F0AEFF2078C00800F088F8CC
:103C600010BD00BFEE1E002008B5074B1878C20734
:103C700008D56FF300001870C0B201F09BFF002060
:103C800000F076F808BD00BFEE1E0020034B1B7845
:103C9000DB0701D5FFF7E8BFFFF7CCBFEE1E002022
:103CA00010B50F4C2378C3F3C402013202F01F0297
:103CB000012A94BF62F3C7036FF3C7032370207810
:103CC00010F0F80F14BF0123002363F300002070ED
:103CD000C0B201F06FFF2078C00800F049F810BDB5
:103CE000EE1E0020094A08B50128137828BF0120DC
:103CF00060F3C703DBB213F0F80F14BF01210021FA
:103D000061F30003137000F033F808BDEE1E0020CD
:103D100008B5FFF7E7FF034B1878BDE8084001F04E
:103D200049BF00BFEE1E002008B58B78EBB1A0F5AF
:103D3000B9403B38052808D8DFE800F003090B0E2E
:103D400011140120FFF7E4FF0023184608BD0020EE
:103D5000F8E7FFF755FFF7E7FFF73CFFF4E7FFF75A
:103D600095FFF1E7FFF79CFFEEE70123EDE7000089
:103D700018B90221064804F05DBE054882684FF676
:103D8000FF73C2EB02420221B2FBF3F204F042BE27
:103D90002026002008B54FF481728021074805F0E5
:103DA0007DFE074907480123CB6104F022FEFFF79F
:103DB000EFFEBDE80840FFF7DBBF00BF000400488E
:103DC000640F002020260020704730B5072201250F
:103DD0004FF09041022405FA02F303400C831AD0FD
:103DE000002300BF00BF00BF00BF00BF00BF013302
:103DF000052BF6D14C8300BF00BF00BF00BF00BF42
:103E000000BF00BF00BF00BF00BF00BF00BF12F176
:103E1000FF32E0D230BD00BF00BF00BF00BF00BF17
:103E200000BF00BF00BF00BF00BF00BF00BF4C838A
:103E300000BF00BF00BF00BF00BF00BF0133052BA4
:103E4000F6D1E4E7012202214FF0904005F026BEB2
:103E5000F8B51B4D2B7804460E461BB9FFF7F2FF51
:103E600001232B70202383F3118800235F1CDBB216
:103E7000B34216D3DFED137A002300BF00BF00BFAB
:103E800000BF00BF00BF013307EE103AB8EEC77A9B
:103E9000B4EEE77AF1EE10FAEFD4002383F3118841
:103EA000F8BD03EB4303E518E05CFFF78EFF68788D
:103EB000FFF78BFFA878FFF788FF3B46D6E700BFE8
:103EC000EF1E00200000A844704708B5FFF7FCFF74
:103ED00008BD000010B50C4C20224FF48051204644
:103EE00005F0DCFD20224FF40051204605F0D6FD00
:103EF000226923691B0BC2F3003203F00203134350
:103F0000024A137010BD00BF00040048F11E0020DB
:103F10001C4B1A691B6910B51B0BC2F3003203F06E
:103F200002031343184A194C117843EA8103DBB2A8
:103F30001370174A03F00F03D35C227813445BB26B
:103F4000032B237007DD134A137800210133084641
:103F50001370FFF7BAFF94F90030033307DA0D4A04
:103F600013780121013B00201370FFF7AEFF94F995
:103F700000305A4202F0030203F0030358BF5342D9
:103F8000237010BD00040048F11E0020F01E002028
:103F9000C9C00008F21E002008B51720FEF72CFE4D
:103FA000431E5842584108BD08B5FFF7F5FF28B138
:103FB00000211720BDE80840FEF726BE0121F8E7E2
:103FC000034A1378C72B9CBF02331370704700BF9E
:103FD000F61E002010B50E4C208801F0BAFFB0F597
:103FE000FA7F01D8238893B90A4B1A780AB1013AAB
:103FF0001A701A78642A84BF02F1FF321A701A7894
:10400000962A84BF023A1A7001F09EFF208010BDEC
:10401000F41E0020F61E0020144B9FED155A1B784D
:1040200006EE903AF8EE666A07EE900AC6EE855AFA
:10403000081A82B0B8EEE76A07EE900AB8EEE77A9F
:1040400007EE901AF8EEE77AE7EE657AB4EEE76AE3
:10405000F1EE10FACCBFFCEEC67AFCEEE77ACDEDBD
:10406000017A9DF8040002B0704700BFF61E0020E0
:104070000000484308B5FDF79AF808BD704708B539
:10408000FFF7FCFF08BD00002DE9F84F184E194F4F
:10409000DFF864A00024834625462246B146B84690
:1040A0005AF8041B21F00F0301F00F011B69CB40EC
:1040B000DB4303F00103D9B2A3401D4317F8013BD2
:1040C00006F8011B9942E0B202D1BBF1000F02D009
:1040D000FFF7D0FF01220134042CE1D132B1284690
:1040E000FFF7CDFFD9F80030C8F80030BDE8F88FF1
:1040F000F71E0020FB1E0020DCC0000870B50B4D31
:104100000424012655F8040B00F00F01202206FAC2
:1041100001F120F00F00013C05F0C0FC14F0FF0499
:10412000F0D10120BDE87040FFF7AEBFDCC0000851
:10413000F8B5154682781F460C46294B92B1197086
:1041400001F002FF274B188004F12003DBB2072B9C
:1041500044D804F007040120A040C0B2BDE8F840F4
:1041600000F0EFBC1E788E422ED11E4B188801F055
:10417000F0FEC72828D8AE4205F1200415D006F17C
:104180002003DBB2072B06D806F007060120B0405B
:10419000C0B200F0DFFCE3B2072B06D805F007033E
:1041A00001209840C0B200F0CCFC3846E4B200F0E8
:1041B000B8FC072C12D805F007050120A840C0B2B2
:1041C000BDE8F84000F0C6BC04F12003DBB2072BC9
:1041D00004D804F007040120A040F0E7F8BD00BFB8
:1041E000FF1E0020001F002008B545F6F3420346DD
:1041F0009342084626D012D845F6D84293421DD0A5
:1042000045F6D94293422DD045F6D74293420FD17D
:10421000E12226231146FFF78BFF002008BD45F65B
:10422000F542934216D011D345F6F642934215D08B
:104230008078D0B10E4B00221A70EFE72723E522D9
:10424000E521E8E72623E122E021E4E72723E52230
:10425000E421E0E72623E122E221DCE72723E5222F
:10426000E621D8E728230122EAE70120D6E700BFAC
:10427000FF1E002038B505468878002800F02A8106
:1042800045F602439D422CD345F615439D4204D981
:10429000A5F5B9437A3B082B23D801F070FC8E4C6E
:1042A00045F610439D42208000F0D2803FD845F66D
:1042B00008439D4200F0A2801ED845F604439D426B
:1042C00000F08C800ED845F602439D427DD045F625
:1042D00003439D427ED0208801F05DFC00F083FE08
:1042E000002038BD45F606439D4200F0838079D911
:1042F000237843F020036BE045F60C439D4200F029
:10430000938009D845F60A439D4200F0818079D90F
:1043100023786FF300035BE045F60E439D4200F007
:104320008B8040F2858023786FF3041350E045F6CC
:10433000FB439D425AD024D845F613439D4200F0DA
:104340008F800ED845F611439D4200F0858045F6DA
:1043500012439D42BFD100F046FE23786FF3C7138E
:1043600036E045F615439D4200F08A80C0F0A480F7
:1043700045F6FA439D42AED1637843F00103637082
:10438000A9E745F6FF439D4272D0B5F5BA4F0ED26C
:1043900045F6FD439D4257D052D9637823F003037D
:1043A00043F003036370002204214C4839E045F6D2
:1043B00001539D4200F08A80B5F5BA4F6FD945F69A
:1043C00002539D4287D1002081E0237843F001030E
:1043D000237080E7237843F00203F9E7237843F062
:1043E0000403F5E7237843F00803F1E7637843F02B
:1043F0000203C4E7237843F01003E9E7237843F08E
:104400004003E5E700F0EFFD237843F08003DFE7AA
:10441000237823F00C0343F00C0323703048002270
:104420000421FDF78DFF56E723786FF34103CFE7B3
:1044300023786FF38203CBE723786FF3C303C7E7D7
:1044400063786FF300039AE763786FF3410396E7AD
:1044500023786FF34513BBE723786FF38613B7E731
:10446000237823F00C032370002202211D48D8E793
:10447000637823F003036370002202211A48D0E717
:104480002278C2F3800383F00103DBB263F382027C
:1044900063F3C302227012F00802E6D0BEE762782E
:1044A000D34303F0010363F3000263F3410262703C
:1044B00012F00202E1D076E700F095FD2378C3F315
:1044C000C01282F0010262F3C71381E7012001F0FC
:1044D000D5FB00E7012004E7C41F0020E80F0020FF
:1044E000B80F0020A80F0020D80F002045F6164373
:1044F000984210B50C461BD101F034FAA2780D4B4E
:1045000072B100F0AA00002815BF01220022352058
:1045100029201A7001F0F6F901F096FA002010BD7A
:104520001B78002B14BF3520292001F0F3F9F3E7A5
:104530000120F4E7021F002010B501230446037692
:10454000407B01F015FAA07B01F02EFA01F07CFA15
:1045500063682BB1E16904F10C00BDE81040184715
:1045600010BD10B50378022B044604D14888FCF72F
:10457000FBFE0123237310BD0378012B02D10888B1
:10458000FCF7F2BE022B01D14888F9E770470378A7
:10459000012B02D10888FCF7FDBE022B01D148880F
:1045A000F9E77047C37A70B50646E3B985880E4CC3
:1045B000A5F5AE456D016219936823B105F10C00B4
:1045C000D169204498472C44607B01F0D9F9A07B45
:1045D00001F0F2F901F038FA044A00233370B372A3
:1045E0003373F380138070BD180C0020041F00206B
:1045F0002DE9F8438B78064673B1144F97F90020E4
:10460000013209D0124CDFF84C9000254FF0010820
:1046100097F90030AB4201DABDE8F883237B93B110
:10462000238AB34203D1B9F80030B3420BD0237EC2
:1046300084F81680668213B92046FFF77DFF04F1E7
:104640000C00FFF7AFFF01352034E1E70810002030
:10465000180C0020041F0020F8B5A0F5AE44FF2C74
:10466000074628D81A4B1B4E93F90000A4B222B279
:104670009042B8BF1C70640135198A78EA752B7BAB
:10468000DAB101332B732F8201F05EFCA88201F0B6
:10469000B7F9687301F066F9A87301F07FF9AB7B95
:1046A0001843A873335923B104F10C00E96930446D
:1046B0009847094B1F800120F8BD002BFBD02B7EB3
:1046C000002BF8D004F10C003044FFF76BFFF2E749
:1046D00008100020180C0020041F00202DE9F843CA
:1046E000154B93F900200132994620D1BDE8F8839B
:1046F000640108EB04056E8B2B7B002E08BFC826D7
:1047000073B1A88A01F025FCB04209D92B7E13B9F8
:104710002846FFF711FF04F10C004044FFF742FF69
:10472000013799F90030FCB29C42E1DDDEE7002759
:10473000DFF80880F5E700BF08100020180C002003
:10474000014B1860704700BF081F0020024B18681B
:1047500008B1036818477047081F0020084B1B6802
:104760006BB1084A127842B1074A92F90020002A38
:10477000BFBF02784270052202705B68184770471D
:10478000081F00206C110020C41F0020034B1B6871
:104790001BB1022101709B6818477047081F002059
:1047A000054B1988814205D01880044B1B680BB15A
:1047B000DB681847704700BF0E1F0020081F00204D
:1047C000054B1988814205D01880044B1B680BB13A
:1047D0001B691847704700BF0C1F0020081F0020EE
:1047E0007047704708B5FFF7FCFF08BD704708B574
:1047F000FFF7FCFF08BD08B5FFF7F2FFFFF7F2FF78
:1048000008BD0120704708B5FFF7FBFF08BD08B5DC
:1048100001F078FBFDF7C8F801F0A8FEFFF7BEF93C
:10482000FFF742F8FFF756FBFFF768FCFFF7DFFFE3
:1048300008BD00002DE9F04F85B0FDF7F5F8FFF752
:10484000E2FF002858D0DFF8E0A0DFF8E090002574
:1048500057465FFA85F84046FDF76EF81AF8016B87
:104860008642834645D099F800309B0701D5FDF775
:1048700069F80023012486EA0B063442DAB233D009
:104880001BEA040F14BF012300238DF800208DF8CC
:1048900002308DF8018001F057FB40F001006B46BB
:1048A000ADF8040093E8030000F042F87B5D5C4043
:1048B0007C55FFF735F8FFF787FAFFF729FB02F081
:1048C00039F8FFF769FB08B1FFF784FB154CFFF7D8
:1048D0003DFF2378834222D0FFF738FF207005B0D8
:1048E000BDE8F04FFCF7D4BD01336400062BE4B201
:1048F000C3D101350A2DACD14FF6FF73ADF80830A6
:1049000000238DF80A3001F01FFB40F00100ADF8E4
:104910000C0004AB13E9030000F00AF8C9E705B086
:10492000BDE8F08F101F0020111F0020BD1F0020C8
:1049300084B06B4683E803000022ADF80E2093E8B4
:10494000030004AB0290ADF80C1013E9030004B0AF
:1049500000F0E8BD008800F0A5BF000010B50446D7
:1049600000287AD0822813D1FFF7F0FE810774D493
:10497000392000F0C7FF01F067F842F2107003F031
:10498000F4FC392000F0C6FFBDE8104001F05CB82F
:1049900083280ED1FFF7DAFEC2075ED4532000F061
:1049A000B1FF01F051F842F2107003F0DEFC532029
:1049B000E8E784280ED1FFF7C9FE43074DD447200E
:1049C00000F0A0FF01F040F842F2107003F0CDFCBF
:1049D0004720D7E7031FDBB2A02B12D802F0D8FB89
:1049E00000283AD11D4B2146186801F069F920B121
:1049F000204600F08FFF01F027F8204600F082FFEC
:104A0000C2E700F12003DBB2072B07D800F0070450
:104A10000120A040C0B200F0ABFFB5E700F15B039E
:104A2000DBB2022B05D80E4ABDE81040D05CFFF780
:104A3000B7BE00F15803DBB2162B06D8094ABDE811
:104A4000104032F81300FFF7BBBEEF2805D901F084
:104A500015FEBDE8104001F009BF10BD0C1000208C
:104A6000ECC00008F0C0000808B5002858D0822823
:104A70000FD1FFF76BFE810752D5392000F042FFBE
:104A800000F0E2FF392000F045FFBDE8084000F0EB
:104A9000DBBF83280AD1FFF759FEC20740D5532058
:104AA00000F030FF00F0D0FF5320ECE784280AD15B
:104AB000FFF74CFE430733D5472000F023FF00F0FB
:104AC000C3FF4720DFE7021FD2B2A02ADBD900F1E3
:104AD0002002D2B2072A07D800F00703012098402D
:104AE000C0B200F04DFFD0E700F15B02D2B2022A63
:104AF00004D80020BDE80840FFF752BE00F158027C
:104B0000D2B2162A04D80020BDE80840FFF758BEEC
:104B1000EF2805D901F026FEBDE8084001F0A6BE49
:104B200008BD10B50446FFF719FF392C0CBF4FF430
:104B3000FA50012003F019FC2046BDE81040FFF7B1
:104B400093BF08B528B100F013FFBDE8084000F09E
:104B50007BBF08BD08B528B100F012FFBDE80840D2
:104B600000F072BF08BD2DE9F04790F806908578F7
:104B700007460C464FEA19190DB100F025FF00F069
:104B8000E7FE8046A0B14DB3C4F3072303F0F00362
:104B9000402B04D004F12003DBB2072B1ED90220E6
:104BA00000F098FF00F0D4FE80F001005FFA80F87A
:104BB000C4F303330F2B45D8DFE813F013001300C1
:104BC00068006800C100D70044004400E1003801DB
:104BD00049014901A30144004400AC014FF0000821
:104BE000E6E7C4F30723C4F3032613F0F00F18BF5E
:104BF00036015FFA84F9A5B166B109F12003DBB291
:104C0000072B304602D9B9F1000F07D100F0B0FEF2
:104C100000F01AFF4846FFF7A1FE13E000F0C4FEC3
:104C2000F6E74846FFF720FF66B109F12003DBB243
:104C3000072B304602D9B9F1000F24D100F0A0FEB5
:104C400000F002FFC4F30334083C032C03D8FFF741
:104C50007DFDFCF71DFCB8F1000F00F0628100F053
:104C60006FFE10F0010040F05C81B87000F060FE53
:104C700000F074FD384600F067F900F059FEBDE819
:104C8000F04700F075BD00F097FED9E7C4F30723A5
:104C900003F0F003C4F30326202B5FFA84FA18BF55
:104CA0003601BAF1000F0DD0BAF1010F2CD0BDB30F
:104CB000B9F1000F2CD0BB79D9072FD56FF30713AB
:104CC000BB7125E09DB1B9F1000F06D100F098FE4F
:104CD0003043C0B2FFF735FFB4E7B9F1010FF5D1AA
:104CE00000F08EFE3043C0B200F096FEAAE7B9F1A4
:104CF000000F05D100F09CFE3046FFF72BFFA1E727
:104D0000B9F1010F9ED0F5E725B1B9F1050F99D89A
:104D10003046DFE7B9F1040F94D8EDE750467AE763
:104D2000B9F1000FE8D0BAF1390F0CBF4FF4FA50C7
:104D3000012003F01AFB5046FFF796FE82E7C4F30A
:104D4000812343B1012B7FF47DAF65B1C4F309002A
:104D5000FFF736FD76E725B1C4F30900FFF720FD24
:104D600070E72846FAE72846F2E7E0B225B101F0FD
:104D700085FC01F07BFD65E701F0F4FCF9E714F434
:104D8000407F25D1002D7FF45DAFE206C4F34210D1
:104D900048BF0F254FEA800048BF854004F00F034D
:104DA000C4F3812248BFED438340022A45EA030051
:104DB00008D00AD8012A02D000F096FC42E700F0A1
:104DC0008BFC3FE700F098FC3CE700F082FC39E701
:104DD000C4F30122D3B2F5B102F00103002B3FF47A
:104DE00031AFC4F34210830004F00F0000FA03F265
:104DF00014F010001CBF0F209840C4F3812318BF8B
:104E0000C043022B40EA02000AD00CD8012B04D088
:104E100000F0CCFC16E75B08E0E700F0BFFC11E710
:104E200000F0CCFC0EE700F073FC0BE75FFA84F9AE
:104E3000C4F3032625B1304600F090FC484649E70C
:104E40004846FFF787FE304600F092FCFAE6E6B2ED
:104E5000A6F1F003042B3CD8DFE803F00310171C85
:104E6000250045B1B9F1040F3FF6ECAEC4F30420C0
:104E700000F08AFCE6E6B9F1050FF5E7C4F304207B
:104E8000002DE1D000F06AFCDCE6C4F30420002D24
:104E9000F8D0D9E725B1C4F3042000F059FCD1E6DD
:104EA00000F042FCCEE64DB1C4F30425284600F0E4
:104EB00055FC0321284600F0F3FDC3E6012000F075
:104EC00009FEB9F1010F7FF6BDAE022000F002FE2F
:104ED000B8E63DB1B9F1000F01D030469BE6C4F30E
:104EE0000420CFE7B9F1000F08D0392E0CBF4FF4E2
:104EF000FA50012003F039FA30461DE7C4F30420CC
:104F0000A2E7C4F30322E1B23846FCF74DFB00F000
:104F100075FB97E6C4F30322E1B23846FCF746FB83
:104F200090E6BDE8F08738B501880446807800F047
:104F3000C5FC054600F04AFC00F0CAFB29462046A5
:104F4000BDE83840FFF70FBE13B583880288ADF87F
:104F500004200446CBB1BDF804204FF6FF739A42FB
:104F600013D0FCF7BFFA50B900F0F2FC68B1A37897
:104F70005BB1022002B0BDE8104000F0ABBD20469E
:104F8000FFF7D1FF2046FCF755FA02B010BD08B577
:104F900028B100F009FDBDE8084000F055BD08BD8E
:104FA00008B528B100F008FDBDE8084000F04CBD90
:104FB00008BD08B500F008FD00F01CFD00F044FD40
:104FC00001F098FD01F052FC0020FFF7E9FB002002
:104FD000BDE80840FFF7F4BB08B500F0A3FCBDE84E
:104FE0000840FFF7E6BF08B500F0D2FCBDE8084076
:104FF000FFF7F2BFC0F303330E3303F00F020D2AA5
:1050000010B522D8012101FA02F313F4105FC4B2E3
:1050100018D140F20332134203D113F010000DD126
:1050200010BDF02C13D004D8E72C8CBF0020012039
:10503000F6E7F42C14BF00200120F1E7E72C06D995
:10504000F12CF7E7C0F3C020EAE70020E8E70846C4
:10505000E6E707B5ADF80400019800F023FC03B0C3
:105060005DF804EBFFF7C6BF82B002AB03E90300B3
:1050700002B0704782B002AB03E9030002B0704790
:1050800070B5094B094E1C78094D3378A34200D105
:1050900070BD05EBC40355F8340059680134FFF7BF
:1050A000E9FF04F00704F0E7651F0020641F0020FB
:1050B000241F0020024B18685968FFF7DBBF00BFB0
:1050C0001C1F0020224BF7B59A7912F0F00F0AD17D
:1050D0009A7842B11F4A204F1278204E4FF6FF7C3B
:1050E0003978914201D103B0F0BD988858B319784E
:1050F0005C788DF804108DF80540BDF804506545C6
:1051000021D006EBC20595F801E0A6451BD116F8A3
:1051100032408C4217D1A978A9B9A988091A89B255
:10512000C72910D899790A48012262F307119971A9
:10513000AB7962F30713AB71FFF706FF03B0BDE86D
:10514000F040FFF79DBF013202F00702C8E700BF41
:105150001C1F0020651F0020641F0020241F00204A
:105160002DE9F04FC44E8FB00446B1880068089016
:1051700030882378627894F80280B4F80490ADF80F
:10518000040096F800E096F801C03546002900F0CA
:10519000098180B24FF6FF7B584500F00381B77854
:1051A000002F00F0FF80A9EB0101B07989B2C72977
:1051B00000F0F00A00F2A480BAF1000F58D18DF887
:1051C00008E08DF809C0BDF808105945C2461CD04A
:1051D0008DF820308DF821203188BDF820C08C4515
:1051E00013D1B8F1000F40F06281012363F307107F
:1051F000B071FFF75FFF3046FFF7A6FEB379A371EA
:10520000002738460FB0BDE8F08FB9F1000F40F02D
:105210005281B8F1000FF3D0AB7943F00103AB71C9
:10522000EEE700EBC10595F801C0944506D110F8F2
:1052300031C09C4502D1AD78002DE1D1013101F0A2
:1052400007014CE110F4706F00D07BB12033DBB26A
:10525000072B0BD92046FFF777FEBA4606E010F47D
:10526000706FF3D0A27912F0F00FEFD15746C8E774
:105270008DF80CE08DF80DC0BDF80C10594516D016
:105280008DF820308DF821203188BDF820C08C4564
:105290000DD1B8F1000F0AD1A0712046FFF754FEDE
:1052A0002368336063687360FFF704FFA9E78DF834
:1052B00020308DF821200898FFF7CBFEE0B1B8F13F
:1052C000000F19D0AB791F2B0CD92A88ADF82820F4
:1052D00000228DF82A20ADF82C908DF82E300AA8E7
:1052E000FFF732FE23682B6063686B60FFF7EAFE0E
:1052F000FFF7E0FE012784E72046FFF725FEF9E7E8
:10530000BAF1000F16D18DF820308DF8212008ABAE
:105310008DF82280ADF8249093E80300FFF7A4FEF7
:105320003046FFF711FEC6F800A0C6F804A0FFF74C
:10533000C1FE9BE78DF810E08DF811C0BDF810108C
:10534000594514D08DF820308DF821203188BDF8D2
:1053500020C08C450BD1B8F1000F08D1A0712046B8
:10536000FFF7F2FDC6F80080C6F8048049E78DF823
:1053700020308DF821200898FFF76BFE0028BBD065
:10538000B8F1000FB8D0AB791F2BABD92A88ADF894
:10539000302000228DF83220ADF834908DF8363070
:1053A0000CA89DE7002969D08DF814E08DF815C090
:1053B000BDF814604FF6FF7086425FD0AF78002FC3
:1053C0005CD1A9EB010189B2C72944D84746002F17
:1053D00092D08DF818E08DF819C0BDF818108142F0
:1053E00027D08DF820308DF821202988BDF82000A5
:1053F00088421ED1AB79DA0716D413F0F00F13D020
:1054000003F0F002F02A1CBFC3F303120132A371B0
:105410001CBF62F30713A3712046FFF795FD2368B5
:105420002B6063686B603FE723682B6063686B6089
:10543000E7E68DF820308DF821200898FFF709FE67
:1054400000287FF44FAFAB79204643F00103AB71E6
:10545000FFF77AFDD5E68DF820308DF82280ADF883
:1054600024908DF8212008AB93E80300FFF7FCFDA2
:105470002F606F6018E700BF1C1F0020B8F1000FFD
:105480003FF43AAF8DF820308DF821200898FFF7CF
:10549000E0FD074600283FF42FAF23682B606368C8
:1054A0001C486B60FFF756FAFFF70CFEFCE6B9F1FB
:1054B000000F3FF4B1AE8DF81C308DF81D20BDF803
:1054C0001C004FF6FF7188423FF4A3AEB8F1000F05
:1054D0007FF4A2AE10481149067809781048B1420D
:1054E0007FF49FAE8DF820308DF82120089800F0D1
:1054F000D9F9C0F30332C3B2032A3FF6ABAE01A120
:1055000051F822F045520008455200085F52000849
:105510005F5200081C1F0020641F0020651F002030
:10552000241F0020F0B587B06C4684E803002046B5
:10553000FFF716FE2D4E2E4D074688B1BDF80430FC
:10554000BDF80020ADF8102043B192B24FF6FF73C2
:105550009A4203D094E80300FFF78CFD254C3EE00F
:1055600094E8030004AB83E80300BDF80420BDF811
:105570001010ADF80C10002AF0D089B24FF6FF726F
:105580009142EBD034782978621C02F007028A42FB
:105590000BD0184F327003CB07EBC40C47F8340024
:1055A000CCF80410FFF76CFDD8E7FFF71CFD124B99
:1055B00037702F701F605F60D0E704EBC000FFF70B
:1055C000CFFD80B12B7804EBC30254F8330051684F
:1055D000FFF750FD2B78013303F007032B70287879
:1055E00033788342E9D107B0F0BD00BF641F0020CB
:1055F000651F0020241F00201C1F0020F8B5034653
:1056000060B1002501261C4614F8010B732806D84A
:10561000042828D201280FD0022827D0F8BD7528E9
:105620003DD032D300F17C03DBB26F2BF6D800F013
:105630007F00FFF719FA0EE09C1C5B7803F1200253
:10564000D2B2072A0ED803F007039840C0B200F088
:10565000C1F900F0F9F92F46013FFFB2FF2F21D128
:105660002346D0E71846FFF779F9F4E758789C1CF1
:1056700000F12003DBB2072BDBD800F0070006FAAD
:1056800000F0C0B200F0AEF9E3E75F789C1C013F88
:10569000FFB2FF2FDFD0642002F067FEF7E79C1C0B
:1056A0005D78D8E7642002F060FED5E7704708B562
:1056B000FFF7FCFF08BD000008B5FFF7F8FF034B3C
:1056C0001860BDE80840FFF774BC00BF681F0020E9
:1056D0007047FFF7F1BF0000024B1B681843FFF74C
:1056E000EBBF00BF681F0020024B1B681840FFF78C
:1056F000E3BF00BF681F0020024B1B685840FFF744
:10570000DBBF00BF681F002008B5FBF7E3FD08BD45
:1057100008B5FFF7F9FF034B1860BDE80840FFF735
:1057200048BC00BF6C1F00200020FFF7F1BF18B974
:10573000B1FA81F040097047C84000F0010070479D
:10574000024B01461868FFF7F2BF00BF6C1F002034
:10575000012303FA00F0FFF7DBBF0000012303FA87
:1057600000F0024B1B681843FFF7D2BF6C1F0020EC
:10577000012303FA00F0034B1B6823EA0000FFF744
:10578000C7BF00BF6C1F0020012303FA00F0024BCB
:105790001B685840FFF7BCBF6C1F0020024B1B6802
:1057A0001843FFF7B5BF00BF6C1F0020024B1B68FA
:1057B0001840FFF7ADBF00BF6C1F0020024B1B68F5
:1057C0005840FFF7A5BF00BF6C1F002070470000C6
:1057D000C0F3072303EB430337B500EB430000F0AE
:1057E000FF0000F0070301229A40C0080A4B00EBBB
:1057F0008000D2B218440024057821FA04F343F360
:1058000000036B40134001346B40052C00F8013B52
:10581000F2D103B030BD00BF701F0020C0F30723DA
:1058200003EB430313B500EB430000F0FF0000F06F
:1058300007040A49C00800EB80000022014410461A
:1058400011F8013BE34003F0010393400132184398
:10585000052AC0B2F4D102B010BD00BF701F0020F5
:105860000E4B73B51E680E4BADF804001B681F2469
:105870001E4326FA04F3DB07E5B206D414F1FF3425
:10588000F7D20025284602B070BD01992846FBF7E3
:10589000A7FE80B20128F1D0F4E700BF6C1F002002
:1058A000681F002007B5ADF804000198FFF7D8FF86
:1058B000019903B05DF804EBFBF792BE13B5104BF2
:1058C000ADF804101B782BB1019802B0BDE8104070
:1058D000FFF7E8BF70B10198FFF7C2FF0446014629
:1058E0000198FFF775FF0199204602B0BDE810400E
:1058F000FBF776BE0198FFF791FF0446F3E700BF80
:105900001B1F0020024B0146186800F041BA00BF7F
:105910000C100020024B0146186800F053BA00BF7B
:105920000C100020014B186800F066BA0C10002023
:10593000024B93F90000C0F3C7007047B91F002065
:10594000024B187800F00700704700BFB91F002015
:10595000034B187810F0070018BF0120704700BFF4
:10596000B91F0020014B1878704700BFBB1F0020F3
:10597000024A137818431070704700BFBB1F002005
:10598000024A137823EA000010707047BB1F002002
:10599000014B00221A707047BB1F0020014B187882
:1059A000704700BFBC1F0020024A137818431070D4
:1059B000704700BFBC1F0020024A137823EA000092
:1059C00010707047BC1F0020014B00221A707047F6
:1059D000BC1F0020024A137818431070704700BFA4
:1059E000B81F0020024A137823EA000010707047A5
:1059F000B81F0020014B00221A707047B81F00200A
:105A0000014B1878704700BFBA1F0020704708B5D7
:105A1000FFF7FCFF08BD000008B5044B1978814270
:105A200002D01870FFF7F3FF08BD00BFBA1F0020B7
:105A300008B5044B1A781AB100201870FFF7E7FF79
:105A400008BD00BFBA1F002010B50D4B0D491B78D3
:105A500009780D4C0B430D49206809780B430C491C
:105A60000370097831B10B43037000F00BF908B1F2
:105A7000FFF7DEFF2068BDE81040FEF76FBE00BFF5
:105A8000BB1F0020BC1F00200C100020B81F0020EE
:105A9000BA1F0020704708B5FFF7FCFF08BD0000E3
:105AA00010B5064C41EAC0012170FFF757FE94F98A
:105AB0000000C0F3C700FFF7EEFF10BDB91F0020C4
:105AC00008B5034B00201870FFF7E5FF08BD00BFC5
:105AD000B91F002008B50A4A92F9003023EA0000F5
